{"abi":[{"type":"constructor","inputs":[],"stateMutability":"nonpayable"},{"type":"function","name":"allFactoryPolicies","inputs":[{"name":"","type":"uint256","internalType":"uint256"}],"outputs":[{"name":"","type":"uint256","internalType":"uint256"}],"stateMutability":"view"},{"type":"function","name":"allUsersPolicies","inputs":[{"name":"","type":"uint256","internalType":"uint256"}],"outputs":[{"name":"","type":"address","internalType":"address"}],"stateMutability":"view"},{"type":"function","name":"buyPolicy","inputs":[{"name":"_id","type":"uint256","internalType":"uint256"}],"outputs":[],"stateMutability":"payable"},{"type":"function","name":"checkUpkeep","inputs":[{"name":"","type":"bytes","internalType":"bytes"}],"outputs":[{"name":"upkeepNeeded","type":"bool","internalType":"bool"},{"name":"","type":"bytes","internalType":"bytes"}],"stateMutability":"view"},{"type":"function","name":"createPolicy","inputs":[{"name":"_price","type":"uint256","internalType":"uint256"},{"name":"_threshold","type":"int256","internalType":"int256"},{"name":"_duration","type":"uint256","internalType":"uint256"},{"name":"_maxPayout","type":"uint256","internalType":"uint256"},{"name":"_name","type":"string","internalType":"string"},{"name":"_description","type":"string","internalType":"string"},{"name":"_image","type":"string","internalType":"string"}],"outputs":[],"stateMutability":"nonpayable"},{"type":"function","name":"editSystemPolicy","inputs":[{"name":"_id","type":"uint256","internalType":"uint256"},{"name":"_price","type":"uint256","internalType":"uint256"},{"name":"_threshold","type":"int256","internalType":"int256"},{"name":"_duration","type":"uint256","internalType":"uint256"},{"name":"_maxPayout","type":"uint256","internalType":"uint256"},{"name":"_name","type":"string","internalType":"string"},{"name":"_description","type":"string","internalType":"string"},{"name":"_image","type":"string","internalType":"string"}],"outputs":[],"stateMutability":"nonpayable"},{"type":"function","name":"factoryPolicies","inputs":[{"name":"","type":"uint256","internalType":"uint256"}],"outputs":[{"name":"id","type":"uint256","internalType":"uint256"},{"name":"price","type":"uint256","internalType":"uint256"},{"name":"threshold","type":"int256","internalType":"int256"},{"name":"duration","type":"uint256","internalType":"uint256"},{"name":"maxPayout","type":"uint256","internalType":"uint256"},{"name":"active","type":"bool","internalType":"bool"},{"name":"name","type":"string","internalType":"string"},{"name":"description","type":"string","internalType":"string"},{"name":"image","type":"string","internalType":"string"}],"stateMutability":"view"},{"type":"function","name":"getAllActiveFactoryPolicies","inputs":[],"outputs":[{"name":"","type":"tuple[]","internalType":"struct PolicyFactory.FactoryPolicy[]","components":[{"name":"id","type":"uint256","internalType":"uint256"},{"name":"price","type":"uint256","internalType":"uint256"},{"name":"threshold","type":"int256","internalType":"int256"},{"name":"duration","type":"uint256","internalType":"uint256"},{"name":"maxPayout","type":"uint256","internalType":"uint256"},{"name":"active","type":"bool","internalType":"bool"},{"name":"name","type":"string","internalType":"string"},{"name":"description","type":"string","internalType":"string"},{"name":"image","type":"string","internalType":"string"}]}],"stateMutability":"view"},{"type":"function","name":"getAllFactoryPolicies","inputs":[],"outputs":[{"name":"","type":"tuple[]","internalType":"struct PolicyFactory.FactoryPolicy[]","components":[{"name":"id","type":"uint256","internalType":"uint256"},{"name":"price","type":"uint256","internalType":"uint256"},{"name":"threshold","type":"int256","internalType":"int256"},{"name":"duration","type":"uint256","internalType":"uint256"},{"name":"maxPayout","type":"uint256","internalType":"uint256"},{"name":"active","type":"bool","internalType":"bool"},{"name":"name","type":"string","internalType":"string"},{"name":"description","type":"string","internalType":"string"},{"name":"image","type":"string","internalType":"string"}]}],"stateMutability":"view"},{"type":"function","name":"getAllUsersPolicies","inputs":[],"outputs":[{"name":"","type":"tuple[]","internalType":"struct PolicyFactory.UserPolicy[]","components":[{"name":"id","type":"uint256","internalType":"uint256"},{"name":"policyId","type":"uint256","internalType":"uint256"},{"name":"policyAddress","type":"address","internalType":"address"},{"name":"policyHolder","type":"address","internalType":"address"},{"name":"startDate","type":"uint256","internalType":"uint256"},{"name":"endDate","type":"uint256","internalType":"uint256"},{"name":"threshold","type":"int256","internalType":"int256"},{"name":"price","type":"uint256","internalType":"uint256"},{"name":"policyActive","type":"bool","internalType":"bool"},{"name":"payoutTriggered","type":"bool","internalType":"bool"}]}],"stateMutability":"view"},{"type":"function","name":"getBalance","inputs":[],"outputs":[{"name":"","type":"uint256","internalType":"uint256"}],"stateMutability":"view"},{"type":"function","name":"getFactoryPolicy","inputs":[{"name":"_id","type":"uint256","internalType":"uint256"}],"outputs":[{"name":"","type":"tuple","internalType":"struct PolicyFactory.FactoryPolicy","components":[{"name":"id","type":"uint256","internalType":"uint256"},{"name":"price","type":"uint256","internalType":"uint256"},{"name":"threshold","type":"int256","internalType":"int256"},{"name":"duration","type":"uint256","internalType":"uint256"},{"name":"maxPayout","type":"uint256","internalType":"uint256"},{"name":"active","type":"bool","internalType":"bool"},{"name":"name","type":"string","internalType":"string"},{"name":"description","type":"string","internalType":"string"},{"name":"image","type":"string","internalType":"string"}]}],"stateMutability":"view"},{"type":"function","name":"getUserPolicies","inputs":[{"name":"_user","type":"address","internalType":"address"}],"outputs":[{"name":"","type":"tuple[]","internalType":"struct PolicyFactory.UserPolicy[]","components":[{"name":"id","type":"uint256","internalType":"uint256"},{"name":"policyId","type":"uint256","internalType":"uint256"},{"name":"policyAddress","type":"address","internalType":"address"},{"name":"policyHolder","type":"address","internalType":"address"},{"name":"startDate","type":"uint256","internalType":"uint256"},{"name":"endDate","type":"uint256","internalType":"uint256"},{"name":"threshold","type":"int256","internalType":"int256"},{"name":"price","type":"uint256","internalType":"uint256"},{"name":"policyActive","type":"bool","internalType":"bool"},{"name":"payoutTriggered","type":"bool","internalType":"bool"}]}],"stateMutability":"view"},{"type":"function","name":"owner","inputs":[],"outputs":[{"name":"","type":"address","internalType":"address"}],"stateMutability":"view"},{"type":"function","name":"performUpkeep","inputs":[{"name":"","type":"bytes","internalType":"bytes"}],"outputs":[],"stateMutability":"nonpayable"},{"type":"function","name":"renounceOwnership","inputs":[],"outputs":[],"stateMutability":"nonpayable"},{"type":"function","name":"togglePolicy","inputs":[{"name":"_id","type":"uint256","internalType":"uint256"}],"outputs":[],"stateMutability":"nonpayable"},{"type":"function","name":"transferOwnership","inputs":[{"name":"newOwner","type":"address","internalType":"address"}],"outputs":[],"stateMutability":"nonpayable"},{"type":"function","name":"usersPolicies","inputs":[{"name":"","type":"address","internalType":"address"},{"name":"","type":"uint256","internalType":"uint256"}],"outputs":[{"name":"id","type":"uint256","internalType":"uint256"},{"name":"policyId","type":"uint256","internalType":"uint256"},{"name":"policyAddress","type":"address","internalType":"address"},{"name":"policyHolder","type":"address","internalType":"address"},{"name":"startDate","type":"uint256","internalType":"uint256"},{"name":"endDate","type":"uint256","internalType":"uint256"},{"name":"threshold","type":"int256","internalType":"int256"},{"name":"price","type":"uint256","internalType":"uint256"},{"name":"policyActive","type":"bool","internalType":"bool"},{"name":"payoutTriggered","type":"bool","internalType":"bool"}],"stateMutability":"view"},{"type":"event","name":"OwnershipTransferred","inputs":[{"name":"previousOwner","type":"address","indexed":true,"internalType":"address"},{"name":"newOwner","type":"address","indexed":true,"internalType":"address"}],"anonymous":false},{"type":"event","name":"SystemPolicyCreated","inputs":[{"name":"id","type":"uint256","indexed":false,"internalType":"uint256"},{"name":"price","type":"uint256","indexed":false,"internalType":"uint256"},{"name":"threshold","type":"int256","indexed":false,"internalType":"int256"},{"name":"duration","type":"uint256","indexed":false,"internalType":"uint256"},{"name":"maxPayout","type":"uint256","indexed":false,"internalType":"uint256"},{"name":"name","type":"string","indexed":false,"internalType":"string"},{"name":"description","type":"string","indexed":false,"internalType":"string"},{"name":"image","type":"string","indexed":false,"internalType":"string"}],"anonymous":false},{"type":"event","name":"SystemPolicyUpdated","inputs":[{"name":"id","type":"uint256","indexed":false,"internalType":"uint256"},{"name":"price","type":"uint256","indexed":false,"internalType":"uint256"},{"name":"threshold","type":"int256","indexed":false,"internalType":"int256"},{"name":"duration","type":"uint256","indexed":false,"internalType":"uint256"},{"name":"maxPayout","type":"uint256","indexed":false,"internalType":"uint256"},{"name":"name","type":"string","indexed":false,"internalType":"string"},{"name":"description","type":"string","indexed":false,"internalType":"string"},{"name":"image","type":"string","indexed":false,"internalType":"string"}],"anonymous":false},{"type":"event","name":"UserPolicyCreated","inputs":[{"name":"id","type":"uint256","indexed":false,"internalType":"uint256"},{"name":"policyId","type":"uint256","indexed":false,"internalType":"uint256"},{"name":"policyAddress","type":"address","indexed":false,"internalType":"address"},{"name":"policyHolder","type":"address","indexed":false,"internalType":"address"},{"name":"startDate","type":"uint256","indexed":false,"internalType":"uint256"},{"name":"endDate","type":"uint256","indexed":false,"internalType":"uint256"},{"name":"threshold","type":"int256","indexed":false,"internalType":"int256"},{"name":"price","type":"uint256","indexed":false,"internalType":"uint256"}],"anonymous":false},{"type":"error","name":"OwnableInvalidOwner","inputs":[{"name":"owner","type":"address","internalType":"address"}]},{"type":"error","name":"OwnableUnauthorizedAccount","inputs":[{"name":"account","type":"address","internalType":"address"}]}],"bytecode":{"object":"0x60806040523480156200001157600080fd5b5033806200003957604051631e4fbdf760e01b81526000600482015260240160405180910390fd5b620000448162000071565b50600180546001600160a01b03191673694aa1769357215de4fac081bf1f309adc325306179055620000c1565b600080546001600160a01b038381166001600160a01b0319831681178455604051919092169283917f8be0079c531659141344cd1fd0a4f28419497f9722a3daafe3b4186f6b6457e09190a35050565b61311480620000d16000396000f3fe6080604052600436106200012b5760003560e01c806386b36f7011620000ad578063aea6a299116200006c578063aea6a2991462000369578063dee05fe0146200038e578063f207da6d14620003b3578063f2fde38b14620003cb578063ffd23c4614620003f057600080fd5b806386b36f7014620002a45780638da5cb5b14620002c95780639101ee2014620002e95780639951aed3146200031d578063acca19af146200034457600080fd5b80634585e33b11620000fa5780634585e33b14620001db5780635c4716dd14620002025780636e04ff0d1462000240578063715018a6146200027557806379c88894146200028d57600080fd5b806312065fe0146200013057806319ac46141462000153578063241a484314620001875780633a0e67ca146200019f575b600080fd5b3480156200013d57600080fd5b50475b6040519081526020015b60405180910390f35b3480156200016057600080fd5b506200017862000172366004620023cb565b62000470565b6040516200014a9190620023f0565b3480156200019457600080fd5b506200017862000562565b348015620001ac57600080fd5b50620001c4620001be366004620024a7565b62000846565b6040516200014a9998979695949392919062002509565b348015620001e857600080fd5b5062000200620001fa36600462002582565b62000a47565b005b3480156200020f57600080fd5b506200022762000221366004620024a7565b62000de8565b6040516001600160a01b0390911681526020016200014a565b3480156200024d57600080fd5b50620002656200025f36600462002582565b62000e13565b6040516200014a929190620025f9565b3480156200028257600080fd5b5062000200620010d1565b620002006200029e366004620024a7565b620010e9565b348015620002b157600080fd5b5062000200620002c3366004620024a7565b62001535565b348015620002d657600080fd5b506000546001600160a01b031662000227565b348015620002f657600080fd5b506200030e62000308366004620024a7565b62001592565b6040516200014a9190620026c0565b3480156200032a57600080fd5b5062000335620017d2565b6040516200014a9190620026d5565b3480156200035157600080fd5b506200020062000363366004620027e6565b62001ada565b3480156200037657600080fd5b506200020062000388366004620028a9565b62001be2565b3480156200039b57600080fd5b5062000140620003ad366004620024a7565b62001d6c565b348015620003c057600080fd5b506200033562001d8e565b348015620003d857600080fd5b5062000200620003ea366004620023cb565b62002156565b348015620003fd57600080fd5b50620004156200040f36600462002962565b6200219a565b604080519a8b5260208b01999099526001600160a01b03978816988a0198909852959094166060880152608087019290925260a086015260c085015260e084015215156101008301521515610120820152610140016200014a565b6001600160a01b0381166000908152600760209081526040808320805482518185028101850190935280835260609492939192909184015b8282101562000557576000848152602090819020604080516101408101825260098602909201805483526001808201548486015260028201546001600160a01b03908116938501939093526003820154909216606084015260048101546080840152600581015460a0840152600681015460c0840152600781015460e08401526008015460ff8082161515610100808601919091529091041615156101208301529083529092019101620004a8565b505050509050919050565b60606000805b600554811015620005d55760076000600583815481106200058d576200058d6200298f565b60009182526020808320909101546001600160a01b03168352820192909252604001902054620005be9083620029bb565b915080620005cc81620029d7565b91505062000568565b5060008167ffffffffffffffff811115620005f457620005f46200273b565b6040519080825280602002602001820160405280156200069457816020015b62000680604051806101400160405280600081526020016000815260200160006001600160a01b0316815260200160006001600160a01b03168152602001600081526020016000815260200160008152602001600081526020016000151581526020016000151581525090565b815260200190600190039081620006135790505b5090506000805b6005548110156200083d57600060058281548110620006be57620006be6200298f565b60009182526020808320909101546001600160a01b031680835260078252604080842080548251818602810186019093528083529295509092909190849084015b82821015620007ae576000848152602090819020604080516101408101825260098602909201805483526001808201548486015260028201546001600160a01b03908116938501939093526003820154909216606084015260048101546080840152600581015460a0840152600681015460c0840152600781015460e08401526008015460ff8082161515610100808601919091529091041615156101208301529083529092019101620006ff565b50505050905060005b81518110156200082457818181518110620007d657620007d66200298f565b6020026020010151868681518110620007f357620007f36200298f565b602002602001018190525084806200080b90620029d7565b95505080806200081b90620029d7565b915050620007b7565b50505080806200083490620029d7565b9150506200069b565b50909392505050565b600660208190526000918252604090912080546001820154600283015460038401546004850154600586015496860180549597949693959294919360ff909216926200089290620029f3565b80601f0160208091040260200160405190810160405280929190818152602001828054620008c090620029f3565b8015620009115780601f10620008e55761010080835404028352916020019162000911565b820191906000526020600020905b815481529060010190602001808311620008f357829003601f168201915b5050505050908060070180546200092890620029f3565b80601f01602080910402602001604051908101604052809291908181526020018280546200095690620029f3565b8015620009a75780601f106200097b57610100808354040283529160200191620009a7565b820191906000526020600020905b8154815290600101906020018083116200098957829003601f168201915b505050505090806008018054620009be90620029f3565b80601f0160208091040260200160405190810160405280929190818152602001828054620009ec90620029f3565b801562000a3d5780601f1062000a115761010080835404028352916020019162000a3d565b820191906000526020600020905b81548152906001019060200180831162000a1f57829003601f168201915b5050505050905089565b60005b60055481101562000de3576000600760006005848154811062000a715762000a716200298f565b60009182526020808320909101546001600160a01b03168352820192909252604001812091505b815481101562000dcb5781818154811062000ab75762000ab76200298f565b600091825260209091206008600990920201015460ff16801562000b0c575081818154811062000aeb5762000aeb6200298f565b906000526020600020906009020160080160019054906101000a900460ff16155b1562000db65760015460408051633fabe5a360e21b815290516000926001600160a01b03169163feaf968c9160048083019260a09291908290030181865afa15801562000b5d573d6000803e3d6000fd5b505050506040513d601f19601f8201168201806040525081019062000b83919062002a44565b505050915050600081905083838154811062000ba35762000ba36200298f565b9060005260206000209060090201600601548112801562000bec575083838154811062000bd45762000bd46200298f565b600091825260209091206008600990920201015460ff165b801562000c2a575083838154811062000c095762000c096200298f565b906000526020600020906009020160080160019054906101000a900460ff16155b1562000db35760006006600086868154811062000c4b5762000c4b6200298f565b906000526020600020906009020160010154815260200190815260200160002060040154905062000cae85858154811062000c8a5762000c8a6200298f565b60009182526020909120600360099092020101546001600160a01b0316826200221c565b600185858154811062000cc55762000cc56200298f565b906000526020600020906009020160080160016101000a81548160ff021916908315150217905550600085858154811062000d045762000d046200298f565b906000526020600020906009020160080160006101000a81548160ff021916908315150217905550600085858154811062000d435762000d436200298f565b600091825260208220600260099092020101546040805163016a57c160e21b815290516001600160a01b03909216935083926305a95f049260048084019382900301818387803b15801562000d9757600080fd5b505af115801562000dac573d6000803e3d6000fd5b5050505050505b50505b8062000dc281620029d7565b91505062000a98565b5050808062000dda90620029d7565b91505062000a4a565b505050565b6005818154811062000df957600080fd5b6000918252602090912001546001600160a01b0316905081565b6000606060005b600554811015620010c9576000600760006005848154811062000e415762000e416200298f565b60009182526020808320909101546001600160a01b031683528281019390935260409182018120805483518186028101860190945280845292939092919084015b8282101562000f31576000848152602090819020604080516101408101825260098602909201805483526001808201548486015260028201546001600160a01b03908116938501939093526003820154909216606084015260048101546080840152600581015460a0840152600681015460c0840152600781015460e08401526008015460ff808216151561010080860191909152909104161515610120830152908352909201910162000e82565b50505050905060005b8151811015620010b15781818151811062000f595762000f596200298f565b60200260200101516101000151801562000f92575081818151811062000f835762000f836200298f565b60200260200101516101200151155b156200109c5760015460408051633fabe5a360e21b815290516000926001600160a01b03169163feaf968c9160048083019260a09291908290030181865afa15801562000fe3573d6000803e3d6000fd5b505050506040513d601f19601f8201168201806040525081019062001009919062002a44565b50505091505060008190508383815181106200102957620010296200298f565b602002602001015160c00151811280156200106257508383815181106200105457620010546200298f565b602002602001015161010001515b80156200108e57508383815181106200107f576200107f6200298f565b60200260200101516101200151155b156200109957600196505b50505b80620010a881620029d7565b91505062000f3a565b50508080620010c090620029d7565b91505062000e1a565b509250929050565b620010db620022b4565b620010e76000620022e3565b565b6000818152600660205260409020548114620011225760405162461bcd60e51b8152600401620011199062002a99565b60405180910390fd5b60008181526006602052604090206005015460ff16620011795760405162461bcd60e51b8152602060048201526011602482015270506f6c696379206e6f742061637469766560781b604482015260640162001119565b6000818152600660205260409020600101543414620011cb5760405162461bcd60e51b815260206004820152600d60248201526c496e76616c696420707269636560981b604482015260640162001119565b33600090815260076020526040902054620011e7600362002333565b6000828152600660205260408120600301544291906200120b906103e89062002ac3565b620012179042620029bb565b60008581526006602052604080822080546002820154600190920154925194955092933392879287929091906200124e9062002352565b9586526001600160a01b03909416602086015260408501929092526060840152608083015260a082015260c001604051809103906000f08015801562001298573d6000803e3d6000fd5b5033600090815260076020526040908190208151610140810190925291925080620012c260035490565b815260200160066000898152602001908152602001600020600001548152602001836001600160a01b03168152602001336001600160a01b031681526020018581526020018481526020016006600089815260200190815260200160002060020154815260200160066000898152602001908152602001600020600101548152602001600115158152602001600015158152509080600181540180825580915050600190039060005260206000209060090201600090919091909150600082015181600001556020820151816001015560408201518160020160006101000a8154816001600160a01b0302191690836001600160a01b0316021790555060608201518160030160006101000a8154816001600160a01b0302191690836001600160a01b031602179055506080820151816004015560a0820151816005015560c0820151816006015560e082015181600701556101008201518160080160006101000a81548160ff0219169083151502179055506101208201518160080160016101000a81548160ff021916908315150217905550505083600003620014a457600580546001810182556000919091527f036b6384b5eca791c62761152d0c79bb0604c104a5fb6f4eb0703f3154bb3db00180546001600160a01b031916331790555b7f060cdf5ac588900aa554ee82c0cf7f3a2599cadee2ed6c17dd9371ccbe762719620014cf60035490565b600087815260066020908152604091829020805460028201546001909201548451958652928501526001600160a01b038616848401523360608501526080840188905260a0840187905260c084015260e083015251908190036101000190a15050505050565b6200153f620022b4565b60008181526006602052604090205481146200156f5760405162461bcd60e51b8152600401620011199062002a99565b6000908152600660205260409020600501805460ff19811660ff90911615179055565b6200159c62002360565b600082815260066020818152604092839020835161012081018552815481526001820154928101929092526002810154938201939093526003830154606082015260048301546080820152600583015460ff16151560a0820152908201805491929160c0840191906200160f90620029f3565b80601f01602080910402602001604051908101604052809291908181526020018280546200163d90620029f3565b80156200168e5780601f1062001662576101008083540402835291602001916200168e565b820191906000526020600020905b8154815290600101906020018083116200167057829003601f168201915b50505050508152602001600782018054620016a990620029f3565b80601f0160208091040260200160405190810160405280929190818152602001828054620016d790620029f3565b8015620017285780601f10620016fc5761010080835404028352916020019162001728565b820191906000526020600020905b8154815290600101906020018083116200170a57829003601f168201915b505050505081526020016008820180546200174390620029f3565b80601f01602080910402602001604051908101604052809291908181526020018280546200177190620029f3565b8015620017c25780601f106200179657610100808354040283529160200191620017c2565b820191906000526020600020905b815481529060010190602001808311620017a457829003601f168201915b5050505050815250509050919050565b60045460609060009067ffffffffffffffff811115620017f657620017f66200273b565b6040519080825280602002602001820160405280156200183357816020015b6200181f62002360565b815260200190600190039081620018155790505b50905060005b60045481101562001ad45760066000600483815481106200185e576200185e6200298f565b906000526020600020015481526020019081526020016000206040518061012001604052908160008201548152602001600182015481526020016002820154815260200160038201548152602001600482015481526020016005820160009054906101000a900460ff16151515158152602001600682018054620018e290620029f3565b80601f01602080910402602001604051908101604052809291908181526020018280546200191090620029f3565b8015620019615780601f10620019355761010080835404028352916020019162001961565b820191906000526020600020905b8154815290600101906020018083116200194357829003601f168201915b505050505081526020016007820180546200197c90620029f3565b80601f0160208091040260200160405190810160405280929190818152602001828054620019aa90620029f3565b8015620019fb5780601f10620019cf57610100808354040283529160200191620019fb565b820191906000526020600020905b815481529060010190602001808311620019dd57829003601f168201915b5050505050815260200160088201805462001a1690620029f3565b80601f016020809104026020016040519081016040528092919081815260200182805462001a4490620029f3565b801562001a955780601f1062001a695761010080835404028352916020019162001a95565b820191906000526020600020905b81548152906001019060200180831162001a7757829003601f168201915b50505050508152505082828151811062001ab35762001ab36200298f565b6020026020010181905250808062001acb90620029d7565b91505062001839565b50919050565b62001ae4620022b4565b600088815260066020526040902054881462001b145760405162461bcd60e51b8152600401620011199062002a99565b60008881526006602081905260409091206001810189905560028101889055600381018790556004810186905590810162001b50858262002b38565b506007810162001b61848262002b38565b506008810162001b72838262002b38565b507f5cd0d0a759096423995c231649c04ee9189e72ff8b8cb633c0b6d3efdbf35c8c8160000154826001015483600201548460030154856004015486600601876007018860080160405162001bcf98979695949392919062002c8a565b60405180910390a1505050505050505050565b62001bec620022b4565b62001bf8600262002333565b600062001c0460025490565b604080516101208101825282815260208082018c81528284018c8152606084018c8152608085018c8152600060a0870181815260c088018e815260e089018e905261010089018d90528a835260069788905298909120875181559451600186015592516002850155905160038401555160048301555160058201805460ff19169115159190911790559251939450909283929182019062001ca6908262002b38565b5060e0820151600782019062001cbd908262002b38565b50610100820151600882019062001cd5908262002b38565b5050600480546001810182556000919091527f8a35acfbc15ff81a39ae7d344fd709f28e8600b4aa8c65c6b64bfe7fe36bd19b0183905550805160208201516040808401516060850151608086015160c087015160e088015161010089015195517fcfe7f64de4b87b0afb90eec3b5744ec28a6407186165759916b4058f57c530969862001bcf9890979096959493929162002cf9565b6004818154811062001d7d57600080fd5b600091825260209091200154905081565b60606000805b60045481101562001e0657600660006004838154811062001db95762001db96200298f565b6000918252602080832090910154835282019290925260400190206005015460ff161562001df1578162001ded81620029d7565b9250505b8062001dfd81620029d7565b91505062001d94565b5060008167ffffffffffffffff81111562001e255762001e256200273b565b60405190808252806020026020018201604052801562001e6257816020015b62001e4e62002360565b81526020019060019003908162001e445790505b5090506000805b6004548110156200083d57600660006004838154811062001e8e5762001e8e6200298f565b6000918252602080832090910154835282019290925260400190206005015460ff16156200214157600660006004838154811062001ed05762001ed06200298f565b906000526020600020015481526020019081526020016000206040518061012001604052908160008201548152602001600182015481526020016002820154815260200160038201548152602001600482015481526020016005820160009054906101000a900460ff1615151515815260200160068201805462001f5490620029f3565b80601f016020809104026020016040519081016040528092919081815260200182805462001f8290620029f3565b801562001fd35780601f1062001fa75761010080835404028352916020019162001fd3565b820191906000526020600020905b81548152906001019060200180831162001fb557829003601f168201915b5050505050815260200160078201805462001fee90620029f3565b80601f01602080910402602001604051908101604052809291908181526020018280546200201c90620029f3565b80156200206d5780601f1062002041576101008083540402835291602001916200206d565b820191906000526020600020905b8154815290600101906020018083116200204f57829003601f168201915b505050505081526020016008820180546200208890620029f3565b80601f0160208091040260200160405190810160405280929190818152602001828054620020b690620029f3565b8015620021075780601f10620020db5761010080835404028352916020019162002107565b820191906000526020600020905b815481529060010190602001808311620020e957829003601f168201915b5050505050815250508383815181106200212557620021256200298f565b602002602001018190525081806200213d90620029d7565b9250505b806200214d81620029d7565b91505062001e69565b62002160620022b4565b6001600160a01b0381166200218c57604051631e4fbdf760e01b81526000600482015260240162001119565b6200219781620022e3565b50565b60076020528160005260406000208181548110620021b757600080fd5b60009182526020909120600990910201805460018201546002830154600384015460048501546005860154600687015460078801546008909801549699509497506001600160a01b039384169692909316949093919060ff808216916101009004168a565b6000826001600160a01b03168260405160006040518083038185875af1925050503d80600081146200226b576040519150601f19603f3d011682016040523d82523d6000602084013e62002270565b606091505b505090508062000de35760405162461bcd60e51b815260206004820152600e60248201526d14185e5b595b9d0819985a5b195960921b604482015260640162001119565b6000546001600160a01b03163314620010e75760405163118cdaa760e01b815233600482015260240162001119565b600080546001600160a01b038381166001600160a01b0319831681178455604051919092169283917f8be0079c531659141344cd1fd0a4f28419497f9722a3daafe3b4186f6b6457e09190a35050565b60018160000160008282546200234a9190620029bb565b909155505050565b6103858062002d5a83390190565b60405180610120016040528060008152602001600081526020016000815260200160008152602001600081526020016000151581526020016060815260200160608152602001606081525090565b80356001600160a01b0381168114620023c657600080fd5b919050565b600060208284031215620023de57600080fd5b620023e982620023ae565b9392505050565b602080825282518282018190526000919060409081850190868401855b828110156200249a578151805185528681015187860152858101516001600160a01b0390811687870152606080830151909116908601526080808201519086015260a0808201519086015260c0808201519086015260e08082015190860152610100808201511515908601526101209081015115159085015261014090930192908501906001016200240d565b5091979650505050505050565b600060208284031215620024ba57600080fd5b5035919050565b6000815180845260005b81811015620024e957602081850181015186830182015201620024cb565b506000602082860101526020601f19601f83011685010191505092915050565b60006101208b83528a602084015289604084015288606084015287608084015286151560a08401528060c08401526200254581840187620024c1565b905082810360e08401526200255b8186620024c1565b9050828103610100840152620025728185620024c1565b9c9b505050505050505050505050565b600080602083850312156200259657600080fd5b823567ffffffffffffffff80821115620025af57600080fd5b818501915085601f830112620025c457600080fd5b813581811115620025d457600080fd5b866020828501011115620025e757600080fd5b60209290920196919550909350505050565b8215158152604060208201526000620026166040830184620024c1565b949350505050565b6000610120825184526020830151602085015260408301516040850152606083015160608501526080830151608085015260a08301516200266360a086018215159052565b5060c08301518160c08601526200267d82860182620024c1565b91505060e083015184820360e0860152620026998282620024c1565b9150506101008084015185830382870152620026b68382620024c1565b9695505050505050565b602081526000620023e960208301846200261e565b6000602080830181845280855180835260408601915060408160051b870101925083870160005b828110156200272e57603f198886030184526200271b8583516200261e565b94509285019290850190600101620026fc565b5092979650505050505050565b634e487b7160e01b600052604160045260246000fd5b600082601f8301126200276357600080fd5b813567ffffffffffffffff808211156200278157620027816200273b565b604051601f8301601f19908116603f01168101908282118183101715620027ac57620027ac6200273b565b81604052838152866020858801011115620027c657600080fd5b836020870160208301376000602085830101528094505050505092915050565b600080600080600080600080610100898b0312156200280457600080fd5b883597506020890135965060408901359550606089013594506080890135935060a089013567ffffffffffffffff808211156200284057600080fd5b6200284e8c838d0162002751565b945060c08b01359150808211156200286557600080fd5b620028738c838d0162002751565b935060e08b01359150808211156200288a57600080fd5b50620028998b828c0162002751565b9150509295985092959890939650565b600080600080600080600060e0888a031215620028c557600080fd5b87359650602088013595506040880135945060608801359350608088013567ffffffffffffffff80821115620028fa57600080fd5b620029088b838c0162002751565b945060a08a01359150808211156200291f57600080fd5b6200292d8b838c0162002751565b935060c08a01359150808211156200294457600080fd5b50620029538a828b0162002751565b91505092959891949750929550565b600080604083850312156200297657600080fd5b6200298183620023ae565b946020939093013593505050565b634e487b7160e01b600052603260045260246000fd5b634e487b7160e01b600052601160045260246000fd5b80820180821115620029d157620029d1620029a5565b92915050565b600060018201620029ec57620029ec620029a5565b5060010190565b600181811c9082168062002a0857607f821691505b60208210810362001ad457634e487b7160e01b600052602260045260246000fd5b805169ffffffffffffffffffff81168114620023c657600080fd5b600080600080600060a0868803121562002a5d57600080fd5b62002a688662002a29565b945060208601519350604086015192506060860151915062002a8d6080870162002a29565b90509295509295909350565b60208082526010908201526f141bdb1a58de481b9bdd08199bdd5b9960821b604082015260600190565b60008262002ae157634e487b7160e01b600052601260045260246000fd5b500490565b601f82111562000de357600081815260208120601f850160051c8101602086101562002b0f5750805b601f850160051c820191505b8181101562002b305782815560010162002b1b565b505050505050565b815167ffffffffffffffff81111562002b555762002b556200273b565b62002b6d8162002b668454620029f3565b8462002ae6565b602080601f83116001811462002ba5576000841562002b8c5750858301515b600019600386901b1c1916600185901b17855562002b30565b600085815260208120601f198616915b8281101562002bd65788860151825594840194600190910190840162002bb5565b508582101562002bf55787850151600019600388901b60f8161c191681555b5050505050600190811b01905550565b6000815462002c1481620029f3565b80855260206001838116801562002c34576001811462002c4f5762002c7f565b60ff1985168884015283151560051b88018301955062002c7f565b866000528260002060005b8581101562002c775781548a820186015290830190840162002c5a565b890184019650505b505050505092915050565b60006101008a83528960208401528860408401528760608401528660808401528060a084015262002cbe8184018762002c05565b905082810360c084015262002cd4818662002c05565b905082810360e084015262002cea818562002c05565b9b9a5050505050505050505050565b60006101008a83528960208401528860408401528760608401528660808401528060a084015262002d2d81840187620024c1565b905082810360c084015262002d438186620024c1565b905082810360e084015262002cea8185620024c156fe608060405234801561001057600080fd5b5060405161038538038061038583398101604081905261002f9161007a565b600095909555600180546001600160a01b0319166001600160a01b03959095169490941784556002929092556003556004556005919091556006805461ffff191690911790556100db565b60008060008060008060c0878903121561009357600080fd5b865160208801519096506001600160a01b03811681146100b257600080fd5b6040880151606089015160808a015160a0909a0151989b929a5090989097909650945092505050565b61029b806100ea6000396000f3fe608060405234801561001057600080fd5b506004361061009e5760003560e01c8063a035b1fe11610066578063a035b1fe14610105578063c24a0f8b1461010e578063c764636e14610117578063d7e6780914610134578063ee89ef3a1461014657600080fd5b806305a95f04146100a35780630b97bc86146100ad5780633680b595146100c957806342cde4e8146100d157806381f8ac8e146100da575b600080fd5b6100ab61014f565b005b6100b660025481565b6040519081526020015b60405180910390f35b6100ab610210565b6100b660045481565b6001546100ed906001600160a01b031681565b6040516001600160a01b0390911681526020016100c0565b6100b660055481565b6100b660035481565b6006546101249060ff1681565b60405190151581526020016100c0565b60065461012490610100900460ff1681565b6100b660005481565b60065460ff1661019d5760405162461bcd60e51b8152602060048201526014602482015273506f6c696379206973206e6f742061637469766560601b60448201526064015b60405180910390fd5b600654610100900460ff16156101ff5760405162461bcd60e51b815260206004820152602160248201527f5061796f75742068617320616c7265616479206265656e2074726967676572656044820152601960fa1b6064820152608401610194565b6006805461ffff1916610100179055565b60065460ff166102595760405162461bcd60e51b8152602060048201526014602482015273506f6c696379206973206e6f742061637469766560601b6044820152606401610194565b6006805460ff1916905556fea26469706673582212201ac56fe7b5c7cb307b5f37eab79ed3d596302df5e15b7a3fe2b2ce118acb57e464736f6c63430008140033a2646970667358221220289970d8d4ebc5a33ac3b9ec89f686af4f8caec421d1a02cb6f04c2dfa90c04364736f6c63430008140033","linkReferences":{}},"methodIdentifiers":{"allFactoryPolicies(uint256)":"dee05fe0","allUsersPolicies(uint256)":"5c4716dd","buyPolicy(uint256)":"79c88894","checkUpkeep(bytes)":"6e04ff0d","createPolicy(uint256,int256,uint256,uint256,string,string,string)":"aea6a299","editSystemPolicy(uint256,uint256,int256,uint256,uint256,string,string,string)":"acca19af","factoryPolicies(uint256)":"3a0e67ca","getAllActiveFactoryPolicies()":"f207da6d","getAllFactoryPolicies()":"9951aed3","getAllUsersPolicies()":"241a4843","getBalance()":"12065fe0","getFactoryPolicy(uint256)":"9101ee20","getUserPolicies(address)":"19ac4614","owner()":"8da5cb5b","performUpkeep(bytes)":"4585e33b","renounceOwnership()":"715018a6","togglePolicy(uint256)":"86b36f70","transferOwnership(address)":"f2fde38b","usersPolicies(address,uint256)":"ffd23c46"},"id":32}